:1082EE000003308466C37CCE1E10101405101F30A0
:1082FE0043576D8095A9BDCEE0EDF7100080143484
:10830E000003308466C300E61E1000FF0C1A2C40DA
:10831E005060708090A0B0C0D0E0F01000501434C7
:10832E000003308466C37CCE1E1010140F1D2D3E2C
:10833E004B5C6D8091A2B3C4D4E3F210005D143097
:10834E000003308466C364CE1E101014182C3F50E8
:10835E0061738599ADC0D2E0EBF5FC100064143A60
:10836E00FF830EFF832EFF82EEFF834EFF831AFFE5
:10837E00833AFF82FAFF835A0802FA1002F61802B5
:10838E00F22004EC2804E83004E43805DF4005DB75
:10839E004605D94E05D45605D05E06CB6606C76E89
:0883AE0006C27606BF7E06BB85
:033C100001C900E7
:104F080090F936E0FEA3E0FF90F93AE0FCA3E0FD5B
:104F1800121B0FE47BE87A03F9F812195EE47B129E
:104F28007A02F9F8D3021A147E007C00121B0FA82B
:104F380004A905AA06AB072290F93BE02480FF905C
:104F4800F93AE03402FEE4FCFDE5102FFFE50F3EE0
:104F5800FEED350EFDEC2290F946E0FEA3E0FFE4FD
:104F6800FCFD0218D3EF3395E0FE75F003EF121A3B
:104F78007CEE75F003A42583F583E4932290F95D14
:104F8800E0FEA3E0FBAA06E4F9F82290F93AE0FE75
:104F9800A3E0FF221218D3C3E50C9FFFE50B9EFE8A
:104FA800E50A9DFDE5099C22ED9FFFEC9EFEE6FDCE
:104FB8007C00D3EF9DEE9C22750C177B007A00795C
:104FC800092290F94EE0FEA3E090F942FFE0FCA32D
:104FD800E0FD22A81174FFFFFEFDFC12195E7B1094
:104FE800E4FAF9F80218D312195E8F0C8E0B8D0AA9
:104FF80022121AAA8B2D8A2E892F22350D8F108EF8
:105008000F8D0E2290F950E0FEA3E0FF90F944E0E6
:10501800FCA3E0FD223400FEE0FCA3E0FDC3EF9D0D
:10502800FFEE9CCF22A4FFAEF07C00021795D206BB
:105038007D037C0022AB45AA46A947121836FDC35A
:1050480022FDFCAB3AAA39A938A83722E50A24FF81
:0E505800FFE50934FFFE22AB14AA13A91222B1
:10F4AC008E468F47E5465401FB7DFE7F1312E771B4
:07F4BC00AD477F1202F9F9D0
:10EE58008E358F36E5367807CEC313CE13D8F954DE
:10EE680002FB7DFD7F1312E771AD367F1102F9F9C0
:10EE78008E488F49E548540FFB7DF07FB512E77146
:10EE8800AD497FB612F9F97B047DFB7FB702E771C4
:10D8B1008F3878AFE6A2E5500D12D8DE7FB712E7B8
:10D8C1007112D8DE8011E538C454F0FB7D0F7FB7AB
:10D8D10012E7717B047DFB7FB712E771227B047D28
:0BD8E100FB7FB712E7717BFF7DFF2289
:09FAA8007B207DDF7F5202E77133
:09FAB1007BC07D3F7FD402E771A8
:10E978007D067FD512F9F97E127F09129EFD7BFF75
:10E988007A1079C9D2067D407C017FD612E03B7DA2
:06E99800017FD502F9F930
:10ECE8008F4678BDE6A2E35018E4FD7FDA12F9F901
:10ECF80012F906E546F4FDE5464406FB7FDA12E71D
:02ED0800712276
:10F26600EFF4FDE4FB7FDA12E7717D387FDA12F600
:0BF27600B4EF7006FD7FDA12F9F922F8
:01FCB200222F
:10531D008F2C8B2D8A2E892FE52C600464017057FC
:10532D00E52C12545BE52C7C017003FD80027D8021
:10533D00AB2DAA2EA92F12546DE52C125464E52C19
:10534D007C017003FD80027D80AB30AA31A9321241
:10535D00546DE52C44A0FD7F6712F9F9E52C7C0115
:10536D007003FD80027D80AB33AA34A935D2067F50
:10537D006612E03B025453E52C64026009E52C648F
:10538D0003600302545AE4F538E4F51EF51AE538C6
:10539D007014E52C540112545BE52F2410F9E435FB
:1053AD002E852D1B8030E538B40114E52C540112E7
:1053BD005464E5322410F9E4353185301B8017E54E
:1053CD002C540144A0FD7F6712F9F9E5352410F93D
:1053DD00E4353485331BF51C891DE4F539AB1B7E93
:1053ED0000E51D2539F9EE351CFA90FFF012172254
:1053FD00FF74092539F8A6070539E539B410DEE43F
:10540D00F536F537E52C7E01B402047F0080027F6E
:10541D0080C3E5379FE5369E5020129C5EEFC45445
:10542D00F0F539129C5EEF4239AD397F6612F9F90C
:10543D000537E53770CE053680CA0538E538C39493
:10544D000350030253967D407F6712F9F922448081
:10545D00FD7F6712F9F9224490FD7F6712F9F92259
:08546D00D2067F6612E03B222B
:10CC3A008B2C8A2D892E7B807D3F7F6B12E771AB0F
:10CC4A002CAA2DA92ED2067D187C007F6912E03B02
:10CC5A007B407D3F7F6B12E771AB2FAA30A931D29F
:10CC6A00067D187C007F6A12E03B7D387F6B02F9F3
:01CC7A00F9C0
:10F1860078ACE6540F75F003900B34121A7C121A01
:0CF19600AAAE02AF01AD07AC0602DB36EA
:10DB36008E318F328C338D347DB07F1C12F9F9AA69
:10DB460031A93212DB617DC07F1C12F9F9AA33A913
:10DB56003412DB61E4FD7F1C02F9F97BFFD2067DFE
:09DB6600807C007F1D12E03B22CF
:10B5DB0090F955E0FF7E007C007DC81217837D64D7
:10B5EB00121795EF2419FFE43EFE78A9E61424F810
:10B5FB00501F24097021D3EF9402EE9400400AEF00
:10B60B0024FEFDEE34FFFC8004AC06AD07AF0580D5
:10B61B00008F0B8F0A8F097D807F6412F9F9124F0F
:10B62B00C31250367F6512E03BE4FD7F6402F9F9EB
:10B2CC0090F956E02453F534E433F533E4FB744A37
:10B2DC002BF582E434F9F583E0FF7E00AC33AD341A
:10B2EC00121783EF7807CEC313CE13D8F9FFD3947C
:10B2FC00FFEE940040087C007E007FFF80027E0001
:10B30C0074092BF8A6070BBB03C47D837F6412F969
:10B31C00F9124FC31250367F6512E03BE4FD7F6497
:03B32C0002F9F92A
:10F4C30078AAE675F0FF7D6412502DAD07C374FF73
:07F4D3009DFD7F0402CA1D2C
:10E3320078A2E6F50908E6F50A08E6F50B7D807F86
:10E34200DC12F9F97D847FDC12F9F9124FC3125005
:0DE35200367FDD12E03BE4FD7FDC02F9F9CF
:10E0FF0078A5E6F50C08E6F50D08E6F50E7D807FB0
:10E10F00DC12F9F97D877FDC12F9F97B007A00794F
:10E11F000C1250367FDD12E03BE4FD7FDC02F9F993
:06FC170012E33202E0FFDF
:10DD31008F358D368B37E4FB7DDF7F6C12E7717B8E
:10DD4100207DDF7F6C12E771AD357F6D12F9F9AD82
:10DD5100367F6D12F9F9AD377F6D12F9F9E4FB7D6C
:06DD6100DF7F6C02E77198
:10EA82008B2C8A2D892E7D807F6E12F9F9AB2CAAF0
:10EA92002DA92ED2067D307C007F6F12E03BE4FD73
:05EAA2007F6E02F9F98E
:104315008F3012F404E4FCFDC004124F3990F959B2
:10432500E0FEA3E090F8D0124FD4121B0FD000127C
:1043350018B8124FF28C0990F940E0FEA3E0FFE4B3
:10434500FCFDAB0CAA0BA90AA8091218D3C006C01C
:1043550007124F85D007D00612195E124F3790F914
:104365003A124F62C006C00790F959124F88D0071C
:10437500D006124FEF8C0978BCE62402FFE433FE29
:10438500C390F945E09FFF90F944E09EFE90F93A0D
:10439500E0FCA3E0FD124F3490F942E0FEA3E0FFFC
:1043A500E4FCFD1218B8C006C00778BBE6240AFF76
:1043B500E433AB07FAE4F9F8D007D0061218C512B2
:1043C50050058C0DE53030E006124F40024451E5B2
:1043D5003030E13A90F940E0FEA3E0FF7C027D80B9
:1043E500121B0FC006C007124F85D007D006121941
:1043F5005E124F37124F93E4FCFD1218B8E5102FEB
:10440500FFE50F3EFEE50E3DFDE50D3C8005124F37
:1044150040350D125005F50DD390F93FE09490907D
:10442500F93EE094065016124F93124F4E12500368
:10443500F50D7B107DEF7F1912E7718014E51024CF
:1044450080FFE50F3402FEE4350EFDE4125003F55E
:104455000DC3E510950CFFE50F950BFEE50E950ACE
:10446500FDE50D9509124FF2F50990F93A124F88BD
:10447500AF0CAE0BAC0912195E8F17124F93AD1727
:104485007C00121B0F124F9FFCE47B10FAF9F81207
:10449500195E8F18E4FB7DFD7F4312E771AD177F31
:0E44A5004012F9F9AD187F4112F9F9AF172254
:104C3A008F3A8E398D388C37E4FF7E041250491230
:104C4A0018D37B407A7E7905780012195E8E3B8FE5
:104C5A003CD3E53C94FFE53B9400401C753D01E5DF
:104C6A003C2402FFE4353BFEEF7802CEC313CE1399
:104C7A00D8F9F53C8E3B8013753D02E53C2401FFD3
:104C8A00E4353BC313F53BEF13F53CAE3BAF3C7C3D
:104C9A00007D641217837C0E7D53121795EF14F56D
:104CAA000EE4F50FE50EC39408400974F8250EF5D5
:104CBA000E430F80E50EC39404400974FC250EF5DB
:104CCA000E430F04E50EC394024007150E150E435A
:104CDA000F02E50EC394014005150E430F01E53C92
:104CEA0024FEF509E53DB401047F0080027F10EF40
:104CFA004406F50AE50F4480F50B124FC0C2067D43
:104D0A00047C007FAE12E03B7B027DFD7FB212E79E
:104D1A00717D807FB112F6B4EF24FF50197B407D7C
:104D2A00BF7FB112E7717F027E0012F356E4FB7D6A
:104D3A00BF7FB112E771E53D75F002A4AEF0124FE4
:104D4A008CFF7E367D6E7C0112195E124F37AE3BA8
:104D5A00AF3C124F67E47B08FAF9F8124FEF8C095F
:104D6A00780F121A251250058C0DE47FE87E031283
:104D7A005049124F9CFCAB10AA0FA90EA80D12198C
:104D8A005E8E3B8F3C533B0F7B017DFE7FBB12E760
:084D9A0071AF3CAE3B02EE7864
:1081580090F94EE0FFA3E090F961CFF0A3EFF09023
:10816800F950E0FFA3E090F963CFF0A3EFF090F9A6
:1081780052E0FEA3E0FF7B007A00792F12A10BC327
:10818800E5309432E52F9400500E90F93AE0FFA3C1
:10819800E090F965CF02821E124F9390F952E0FCED
:1081A800A3E0FDC39FEC9E5038C3ED9FFFEC9ECF2C
:1081B8002530CF352FFEC3EF9432EE94005019C30B
:1081C80090F93BE09530FF90F93AE0952FCF2432B3
:1081D800CF340090F965803E90F965ECF0A3EDF09E
:1081E8002290F93BE02530FF90F93AE0352FFEC3A5
:1081F800EF9DFDEE9CFCC3ED9432EC9400500CEF27
:1082080024CEFFEE34FF90F965800B90F952E0FF21
:0B821800A3E090F965CFF0A3EFF02287
:10A10B008E438F448B458A46894790F93EE0FEA3E8
:10A11B00E07803C333CE33CED8F9FF7C007D0A122F
:10A12B001795C390F93BE09FFF90F93AE09EC3135C
:10A13B00FEEF13FFAB45AA46A947EE8FF012189915
:10A14B00124F93C39544EE9543501412503DE54482
:10A15B009FFFE5439EFED3EF9DEE95F0400122124B
:10A16B004F93C39544EE9543401412503DEF9544E5
:10A17B00FFEE9543FED3EF9DEE95F0400122D322E7
:102048008E3B8F3C7F2012ECE87B007A007941AF11
:102058003CAE3B12A10B400A90F93AE0F53BA3E0F5
:10206800F53C750904750A4F750B24124FC0C2065A
:102078007D047C007F9812E03B750917E4F50A752A
:102088000B37FB7A007909C2067D03FC7FA112E0B9
:102098003B124F084013E53CAE3B7802C333CE33C6
:1020A800CED8F9F53C8E3B800BE53C25E0F53CE5C8
:1020B8003B33F53B750D00750E6475400BAF407DE5
:1020C8003E124F30AE3BAF3C124F67C004C005C054
:1020D80006C00790F946E0FEA3E0FF7C037D2012CE
:1020E8004F34D007D006D005D00412195E8F3F7D3B
:1020F80019124F30124F5FC004C005C006C007AFA9
:10210800407E007C187D38124F34AE3BAF3C124FF6
:1021180067D003D002D001D00012195E8E098F0A51
:10212800D3E50A94A8E509940C50030221E67480CB
:10213800250AF50A74F33509F509D3E50A950EE57C
:1021480009950D500C85090D850A0E853F3D854082
:102158003EE53F2401FFE433FE7C007D19124F3435
:10216800124F5FC004C005C006C007AF407E007CA8
:10217800187D38124F34AE3BAF3C124F67D003D0B6
:1021880002D001D00012195E8E0B8F0CD37480958B
:102198000C740C950B400C7480950CFF740C950B0B
:1021A800FE800AE50C2480FFE50B34F3FE8E0B8FCE
:1021B8000CC3E50C9428E50B94005007E53F04F5A3
:1021C8003D801ED3E50C950EE50B950D5018850B3B
:1021D8000D850C0EE53F04F53D85403E8008853FA2
:1021E8003D85403E800C0540E540C39430500302D5
:1021F80020C5124F08E53B400E13FEE53C13FFEEE9
:10220800C313F53BEF8006C313F53BE53C13F53CE0
:1022180078C9E61340030223417B007A007917C28C
:10222800067D027FA512DE3C05170517051805185F
:102238007B007A007915C2067D027FA912DE3CE593
:1022480015540FFEE5162401F516E43EF515E4FDD8
:102258007F9F12F9F97D077F9F12F9F9124FC3D2B8
:10226800067D047FA012DE3CAF187E00AD3D124F04
:1022780032AE15AF16124F671250058C0DAF3E7E69
:1022880000AD17124F32AE3BAF3C124F678F148E22
:10229800138D128C1112505FA811AF0CAE0BAD0A42
:1022A800AC0912195EAB10AA0FA90EA80D1218D30B
:1022B800124FF28C09AF10AE0FAD0EAC0D12505F7D
:1022C800A811D3121A14402F124FDB124F37C3E54F
:1022D800149510FFE513950FFEE512950EFDE51117
:1022E800950DFC1218D3E50C2FFFE50B3EFEE50A11
:1022F8003DFDE5093C802112505F124FDB124F373C
:10230800C3E5109514FFE50F9513FEE50E9512FD34
:10231800E50D9511FC124F9C124FF2F5097D207FB7
:102328009F12F9F97D227F9F12F9F9124FC3D20645
:102338007D047C007FA012E03B124F08E53C400C76
:1023480024FFE53B34FF540F4410800824FFE53B8D
:1023580034FF540FFB7DE07FA912E771E53C14FDC3
:102368007FAA12F9F9E53D24FEFD7FA512F9F9E5EA
:102378003E24FEFD7FA612F9F9E53D75F0047D0ABD
:1023880012502DC3EF9405EE940050087C007E0097
:102398007F008008EF24FBFFEE34FFFE8F0EE4F58C
:1023A8000FE50EC3943C400974C4250EF50E430F87
:1023B80010E50EC39428400974D8250EF50E430F76
:1023C80008E50EC39414400974EC250EF50E430F6E
:1023D80004E50EC3940A400974F6250EF50E430F62
:1023E80002E50EC39405400974FB250EF50E430F54
:1023F80001050F050FAB0F7DE07FA712E77178C9C4
:10240800E613402112EF547D207F9A12F9F97F01DB
:1024180012D03F7F0112D03F7D247F9A12F9F978BC
:10242800C9E64401F678C9E61350077D687F9F1214
:10243800F9F97F0412D03F7F0412D03FE4FD7F9F5B
:0B24480012F9F912F9067F3802ECE8E7
:10495A008F427F3012ECE853423F124F937C5D7DC9
:10496A00C0121B0FC006C00790F946124F88D00725
:10497A00D00612195E7BA5124FE87B407A42790F66
:10498A00780012195E8E448F45D3E5459440E5447C
:10499A0094005005C374408003C374809545FFE4B6
:1049AA009544FE8E448F45AF427E00C3EF9545EE97
:1049BA0095444006EF9545FF8006C3E5459542FFBD
:1049CA008F09E509D3940C400AE509943450047F11
:1049DA000080027F018F43124FCAC39FEC9E50266C
:1049EA00C390F94FE09DFF90F94EE09CFE78BB1210
:1049FA004FB6401290F943E02DFE90F942E03C9008
:104A0A00F94EF0A3CEF0124FCAD39FEC9E4016780F
:104A1A00BB124FB0400FE09DFE90F942E09C90F926
:104A2A004EF0A3CEF078BBE6FF90F943E02FFF905B
:104A3A00F942E090F94E12501D240AF50AE43FF5B6
:104A4A0009D3E545940CE5449400401CE542240C46
:104A5A00FFE433FEC3EF9545EE95445005125054DA
:104A6A008020AE09AF0A801AE5452434FFE43544B4
:104A7A00FEC3E5429FE49E50051250548004AE09DD
:104A8A00AF0A8E448F457B407DBF7FA912E7711222
:104A9A004F084007E54225E0FB8002AB427D807F5C
:104AAA00AC12E771AF45AE4412F4ACE5433333338D
:104ABA0054F8FB7DF77F0712E77112EDD412F9065D
:054ACA007F3802ECE85A
:08FBBF0090F954E0FF02495ADD
:109E78007F1012ECE812500CC39FEC9E5026C39042
:109E8800F951E09DFF90F950E09CFE78BC124FB666
:109E9800401290F945E02DFE90F944E03C90F950CD
:109EA800F0A3CEF012500CD39FEC9E401678BC1253
:109EB8004FB0400FE09DFE90F944E09C90F950F0BF
:109EC800A3CEF078BCE6FF90F945E02FFF90F94467
:109ED800E090F95012501D2402CF3400FE12EE58C3
:109EE80012EDD47F2012D03F7F1012D03F12F90616
:059EF8007F3802ECE8D8
:10C47A00EF540FFEC454F0F509EDBF070C5407C47E
:10C48A003354E04410F50A801D5407C454F0FFE504
:10C49A00315401C433333354804FFFEB5403FE2528
:10C4AA00E025E04FF50A124FC3C2067D027C007FE9
:0BC4BA001712E03BE4FD7F1702F9F9C8
:106BB100EF14601714601F14602714602F240470F1
:106BC1003DE4126C8CFD7FE5026C8890836E124F60
:106BD100F990837A801F908371124FF990837D80A1
:106BE10014908374124FF9908380800990837712F7
:106BF1004FF9908383121AAA8B308A318932126C31
:106C0100945333FC7B007A007934D2067D017FE511
:106C110012DE3CAD337FE412F9F9AD347FE512F9B0
:106C2100F9E4126CB0F533AB2DAA2EA92F126CA486
:106C3100252FF52FE4352EF52E0533E533C3940CBE
:106C410040E5126C94E53354FC4401F533126C8C2D
:106C5100126CB0F533AB30AA31A932126CA42532D3
:106C6100F532E43531F5310533E533C3941440E5AC
:106C71007F2012D03F7DAC7FE412F9F9E4FD7FE57E
:106C810012F9F9E4FD7F6012F9F922FD7FE412F9AE
:106C9100F9E4227B007A007933D2067D017FE41288
:106CA100DE3C22121709FD7FE712F9F9740122FD7A
:076CB1007FE612F9F9E4226D
:10B81B008F2DE52D75F0101216E785F02E78A9E621
:10B82B00FF600864016004EFB40704E4FD803AAFE5
:10B83B002D908386124F6DF509908387124F72F509
:10B84B000A908388124F6DF50B750C12750D807570
:10B85B000EF87D807F2612F9F9124FC3D2067D06B2
:0FB86B007C007F2712E03B7D407F2612F9F922F7
:1035F40090F940E0FEA3E0FF7C0C7D00121B0FE479
:103604007B02FAF9F812195EAB35AA34A933A83251
:10361400C3021A14E5095407F531E50AF5327B00B3
:103624007A0079092290F942E0FFA3E090F94ECFA5
:10363400F0A3EFF090F944E0FFA3E090F950CFF04D
:10364400A3EFF02290F936E0FEA3E0FF90F93AE010
:10365400FCA3E0FD121B0FE47BE87A03F9F81219CE
:103664005EE47B127A02F9F8D3021A1490F952122A
:10367400182090F952E0FEA3E0FF22E6FC08E6FDE4
:10368400EC540FFBE7C4F854F0C809E7C4540F48DE
:1036940054702290F946E0FEA3E0FBAA06E4F9F890
:1036A4002278B1E62401FF18E436FEC3EF78B89619
:1036B40022E4F50CF50DF50EF50F751001FB7A00FB
:1036C4007909C2067D08FC7F762290F93AE0FFA3CF
:1036D400E0CF90F952F0A3EFF022D3AB0CAA0BA9E0
:1036E4000AA809021A14E6FF90F93FE09F90F93EF8
:1036F400E09E2278B8E62402FF18E436FEEF54FC7C
:10370400FFEEF608EFF622E47B02FAF9F812195EEE
:10371400A804A905AA06AB0722C3E5329530FFE544
:1037240031952F2212195E78B7EEF608EFF6D3948E
:1037340002EE940022FCE53425E0FFE53333FEC3BA
:10374400ED9FEC9E223EFEE0FCA3E0FDC322AB33E2
:10375400AA34A935021709E51154F075F010A4FF35
:10376400AEF0EF4512227B007A00792D7D0122FE16
:10377400D390F943E09F90F942E09E22F6E43E188C
:10378400F6E511540FFEE51322AB3DAA3CA93BA874
:103794003AD3021A1490F948E0FCA3E0FD021B0F8F
:1037A40090F93EE0FEA3E02290F93BE09FFF90F900
:1037B4003AE09E22FFEE1896FE78B0F608EFF62265
:1037C400AB3AAA39A938A837021A147B007A0079CF
:1037D40011C2067D03222FFFE03EFED3EF9DEE9C37
:1037E40022E6FDD3EF9D7480F86E9822AB33AA34A1
:0E37F400A935121709FF2274FFFFFEFDFC220B
:1094A60012FCA490F954E0F52EE4FD7F7D12F9F943
:1094B60012F9061250668F2DE52D703F1227558F33
:1094C6002DE52D70251231A18F2DE52D600464FE4A
:1094D6007013E52DB4FE0312952D1250668F2DE5FF
:1094E6002D6021801612952D801A1236CE1236293D
:1094F600A3E0FEA3E0FF122048800312362912FBE8
:10950600BF129E78E52D6003B4801390F934E0FF16
:1095160012E54912815890F934E0FF12EC7F12F9F6
:109526000612FCA7AF2D2290F954E52EF0FF124942
:029536005A22B7
:10F67800123DF98F2CE52C700512CDC0800312B213
:04F6880003AF2C227E
:1096590012F9067D037F7A12F6B4BF03047F968060
:10966900027F328F4F7550197F017E0012F3561217
:109679003622D2067D017F0312DE3CE50930E00C7B
:10968900E4FD7F0312F9F975501980021550E55070
:109699006006E50954C060037FFF2212F88F78CA7B
:1096A900E61350037FFF22123622D2067D017F7D09
:1096B90012DE3CE50930E003D54FAD123622D20661
:1096C9007D017F0212DE3CE4FD7F0212F9F9E50912
:0F96D90054637004E54F70047FFF80027F00220E
:10C5A6008F4F755019E4FD7F0312F9F97F017E0064
:10C5B60012F356123622D2067D017F0312DE3C5359
:10C5C60009C1E50930E010E54F600CE4FD7F031278
:10C5D600F9F9154F755019E54F600C1550E5506087
:0AC5E60006E50954C060C5AF092244
:107B7D008F4290F952E0F545A3E0F546AE45AF468C
:107B8D00123799C006C007123697D007D0061219C2
:107B9D005E8E438F447B507D0F7F1312E771E54658
:107BAD002405F546E43545F54574E02546F546745E
:107BBD00FF3545F545E544241BFFE4354312377386
:107BCD00400280047E007F018E438F44D3E54494B0
:107BDD0020E5439400400CE54424E0FFE54334FFE9
:107BED00FE80047E007F018E438F445342FCE545A9
:107BFD00540FFDE543C4F854F0C8E5441236904DDA
:107C0D00F50985440A85460B123622C2067D037C92
:107C1D00007F7012E03B85420985420A85420B12B6
:107C2D0036B512E03B1296598F09E5096001221213
:107C3D0037CF7F8112DE3C12375B242078B81237A4
:0D7C4D0080242078B1F6E43E18F67F002276
:10654C008F3B90F952E0F53EA3E0F53FAE3EAF3FF6
:10655C00123799C006C007123697D007D006121909
:10656C005E8E3C8F3D7B507D0F7F1312E771E53FB4
:10657C002405F53FE4353EF53E74E0253FF53F74C8
:10658C00FF353EF53EE53D241BFFE4353C123773E9
:10659C00400280047E007F018E3C8F3DD3E53D940C
:1065AC0020E53C9400400CE53D24E0FFE53C34FF45
:1065BC00FE80047E007F018E3C8F3D533BFCE53E0C
:1065CC00540FFDE53CC4F854F0C8E53D1236904D2F
:1065DC00F509853D0A853F0B90F93CE0FCA3E0FDF5
:1065EC002402E43C540FF50C750D02ED2402F50E5B
:1065FC00123622C2067D067C007F7012E03B853B82
:10660C0009853B0A853B0B1236B512E03B129659B5
:10661C008F09E5096001221237CF7F7E12DE3C1212
:10662C00375B240378B31237802403FFE43EFE78F3
:10663C00B4F608EFF64E70037F8022E511547FF517
:10664C000985120A85130B123622C2067D037C00C3
:08665C007F7312E03B7F002276
:105E93008F428D438B44E4FD7F7D12F9F9E5425433
:105EA30003FB7DFC7F7A12E77112364840160543E7
:105EB300E54525E0F545C3944040097B027DFD7F20
:105EC300A812E771E54414541F33333354F8FFE544
:105ED3004354074FFD7F7B12F9F9E545543FFD7F9E
:105EE3007C12F9F9AF437401A807088002C333D8C1
:105EF300FCF543E5448543F0A42545F54285454D2E
:105F0300E4F54CF54BF54AF549F54E7D7B7F7D1263
:105F1300F9F97F0112C5A67D037F7A12F6B4BF0398
:105F2300047F0380027F0112C5A6EF54C0600512EF
:105F33005FA68047123622C2067D037F8412DE3CB1
:105F4300E4F50CAF4CAE4BAD4AAC491236DE400F14
:105F5300850C4C850B4B850A4A850949854D4EE5D1
:105F630043254DF54DC3954240AD125FA67F011207
:105F7300D03F1296598F09E50960041237FB2212AC
:105F83003648400BE54E13AB46AA47A9488008ABF9
:105F930046AA47A948E54E121771AF4CAE4BAD4A1E
:105FA300AC4922E4FD7F7D12F9F9E4FB7DFD7FA876
:045FB30012E771225E
:10E51E00EF5403FB7DFC7F7A12E7717D3B7F7D120A
:10E52E00F9F91296598F09E509600122123622C2B5
:0BE53E00067D047F8412DE3C7F00227B
:102755001236CEE054FCF01236761220487F501225
:10276500654C8F2FE52F6001221237A47803C33300
:10277500CE33CED8F9FF7C007D0A121795C31237E8
:10278500ACC313F533EF13F534E4F535F536F53110
:1027950075320A122A366001221236A51237B89010
:1027A500F93EE0FCA3E0FDD39FEC9E405DED96FD78
:1027B500EC18961237394003022859123676121B47
:1027C5000FC006C00790F93E12369AD007D0061200
:1027D500372850030228911236F790F93BE025344B
:1027E500FD90F93AE03533FC90F953E090F9521237
:1027F50037DA400302285978B7E6FE08E6FF90F974
:1028050052EE8FF01218200228751237A4FFC378F4
:10281500B1E69FFD18E69E12373940028036123622
:1028250076121B0FC006C00790F93E12369AD007E4
:10283500D00612372840551236F790F953E0253463
:10284500FD90F952E03533FC90F93BE090F93A12EE
:1028550037DA4008753500753601801478B7E6FE1D
:1028650008E6FFC390F953E09FF090F952E09EF01F
:10287500E53645357016123676122048E5321532A2
:10288500700215311445316003022798E532453150
:102895006008E5366401453570037F802278B0E62F
:1028A500FE08D31236EA501890F93A12374B90F9D0
:1028B50053E09DFD90F952E09CFCED64044C6013DF
:1028C500D31236EC402D1236761237ACFEEF640487
:1028D5004E702090F93AE0FEA3E0FFEE1236D612D4
:1028E5002048122A366001221236A579B1F7EE1872
:1028F5009619F790F952E0F535A3E0F53678B0E68C
:10290500FE08C31236EA7E0040047F0480027F027F
:10291500EE8FF01236701220487D187F7912F9F982
:10292500853531853632E4F53AF539F538F537F53B
:10293500337534067F60127B7D8F2FE52F60012272
:102945001236A51237B890F93FE02402FD90F93E02
:10295500E03400FCD3EF9DEE9C400BE4F50CF50B49
:10296500F50AF5098028E4F545F5467547007548EB
:10297500307B087D037F03125E938F0C8E0B8D0ACF
:102985008C091237FBC31236DF70037FFF22AF0CB1
:10299500AE0BAD0AAC09C31237C45016850C3A8587
:1029A5000B39850A3885093790F952E0F531A3E0EE
:1029B500F532E5344533701C90F93AE0FEA3E0FFAB
:1029C500D390F953E09F90F952E09E4021EEF0A399
:1029D500EFF0801474FE2534F53474FF3533F53388
:1029E50074FF75F0FE123670122048022939AF3A8D
:1029F500AE39AD38AC37E47B03FAF9F812195E8FBE
:102A05003A8E398D388C371237A4FFE4FCFD780AED
:102A1500121A38D31237C44006AE31AF328004AE35
:102A250035AF3690F952EEF0A3EFF01220487F0053
:0B2A3500227F60127B7D8F2FE52F2297
:1031A1007F50127B7D8F2FE52F6001227D801233AE
:1031B1008B70037FFF22E4FFFEFDFC12360C7003CF
:1031C1007F80221235F4501F7D4012338B70037FB4
:1031D100FF22E4FFFEFDFC12360C70037F802212F9
:1031E10035F450037FFE22E52F24F8543FF5457551
:1031F100460075470075482F7B087D017F03125EED
:10320100938F358E348D338C321237FB12360C701E
:10321100037FFF22E4FFFEFDFC12360C70037F806A
:1032210022E52F24FD543FF530FF12495A7F031246
:10323100E51EEF60037FFF22850C39850B38850A77
:10324100378509361233BF60037FFF22850C3D8528
:103251000B3C850A3B85093AE52F2403543FF52FA2
:10326100E4F535F534F533F5321233BF60037FFFF2
:1032710022850C41850B40850A3F85093EAF39AE59
:1032810038AD37AC3612378D4016E53D9539FFE53F
:103291003C9538FEE53B9537FDE53A9536FC8015C2
:1032A100C3E539953DFFE538953CFEE537953BFD96
:1032B100E536953AFC12370BE541253DFFE54035F2
:1032C1003CFEE53F353BFDE53E353AFCEF2539FF58
:1032D100EE3538FEED3537FDEC3536FC1218C5C03C
:1032E10004C005C006C007AF41AE40AD3FAC3E12C1
:1032F100378D4016E53D9541FFE53C9540FEE53BA8
:10330100953FFDE53A953EFC8015C3E541953DFFAE
:10331100E540953CFEE53F953BFDE53E953AFC12C7
:10332100370BD007D006D005D0041218C58F0C8EEC
:103331000B8D0A8C09AF35AE34AD33AC321236DEAB
:103341004013850C35850B34850A33850932E53008
:1033510014543FF531853D39853C38853B37853AF5
:103361003685413D85403C853F3B853E3AE53065AC
:103371002F600302326A90F954E531F0FF12495A85
:103381007D407F7912F9F97F00227F7912F9F9E402
:10339100F545F54675470075482F7B087D037F038A
:1033A100125E938F358E348D338C3274FFFFFEFDA8
:1033B100FCAB35AA34A933A832C3121A1422E53062
:1033C10004543FF530FF12495A7F0312E51EEF22E4
:105066007F5012654CEF6001227F50127B7DEF600E
:105076000122123622C2067D027F0D12DE3C123656
:1050860018C2067D017F1112DE3C7B007A00790A88
:10509600C2067D017F1312DE3CE50A5402F52FE5B8
:1050A60009F53078B2E6FE08E6FFC39530F530EE36
:1050B600952FF52FC378B5E69FFF18E69ECF2401FE
:1050C600CF3400FE90F94012374B9FF534EC9EF535
:1050D60033D3E5349403E533648094804010125151
:1050E600BA7C007D021217EA8E338F348005E4F510
:1050F60033F53412371DFE90F951E02FFF90F95029
:10510600E090F944123749EF9DFFEE9CCF2534CF4E
:105116003533FE12FA2978BC1237E5501AC3E53248
:105126009530CFE531952FCF2534CF353390F950D3
:105136008FF01218208003123638129E781236220B
:10514600C2067D027F0912DE3C123618C2067D02B7
:105156007F1212DE3CE50A5401F52FE509F530C34E
:1051660078B8E69530FF18E6952FCF24FEF530EF98
:1051760034FFF52F12371DFE90F94FE02FFF90F9FF
:105186004EE090F9421237491251BA78BB1237E510
:10519600500D12371D90F94E8FF0121820800F9087
:1051A600F942E0FFA3E090F94ECFF0A3EFF012FB37
:0E51B600BF7F0022EF9DFFEE9CFE12FA292221
:103DF900D204E4F53174A22531F8768074A5253111
:103E0900F876800531E531B403EB12FC177F5012C7
:103E1900654C8F2DE52D6001227F50127B7D8F2D02
:103E2900E52D60012212376A7F02128842EF600392
:103E39007F8022E52DC3946050037F802212376A68
:103E49007F01128842EF60037F8022E52DC39460D1
:103E590050037F802212376AE4FF128842EF600321
:103E69007F8022E52DC3946050037F802278B67647
:103E790005123FAA753002200403023F97753130BD
:103E89007B007A00792EAF3012B1378F2DE52DB432
:103E9900800122E52D644060727B007A00792FAFA2
:103EA9003012924D8F2DE52DB480012278A9E6B408
:103EB900080BE53064016005752D808003752D02BE
:103EC900E52EB4FA06E52F652D6040E531D3940857
:103ED9004030E52ED394FB5029E52EC394F94022B6
:103EE900E52D2401FFE433FED3E52F9FEE6480F82E
:103EF900748098500DE52D14FFE52FC39F4003757D
:103F090031081531E5316003023E8974A22530F884
:103F1900E6D394F0402678B6E6B40718E530B40243
:103F2900057530018045E530B40105E4F530803B85
:103F3900C204803775300278B606802F74A2253006
:103F4900F8E6C3941E502C78B6E6B40418E530B4EC
:103F590002057530018014E530B40105E4F53080BF
:103F69000AC204800675300278B61678B6123FAADE
:103F7900023E80E530B40206753001023E80E5302C
:103F8900B40106E4F530023E80C204023E8078A204
:103F9900E6600808E6600408E670037F80227F0077
:103FA90022E6C45430F5467BCFE4FD7FDC12D00015
:083FB9007F017E0012F3562285
:108842008D388B398A3A893BBF0304AB078005C355
:1088520074029FFB7DF87F7A12E771E538703075FC
:108862000912750A80F50BF50C78B2E6FE08E6FFF0
:10887200D39409EE940040067E007F098008EF241D
:10888200FFFFEE34FFFE8F0DE50D04F50E8022781A
:10889200B079B712367F4BF50978B8E6F50A8D0B39
:1088A20078B479B212367F4BF50C78B3E6F50D8DBC
:1088B2000E123622C2067D067C007F7012E03BE576
:1088C200385401C43354E04401FD7F7D12F9F9129A
:1088D20096598F09E509600122AB39AA3AA93BC230
:1088E200067D017F8712DE3CE538700DAB39AA3A6E
:0C88F200A93B121709F41217717F002235
:10B137008F328B338A3489357D01128842EF600361
:10B147007F80221237F0D394FA4020EF2406F53699
:10B15700E4FBAD36AF3212DD9DEF6037E4FB7D04D3
:10B16700AF3212DDD2EF602B7F40221237F0C3944B
:10B17700FA5020C374FA9FF5367B01FDAF3212DD1A
:10B187009DEF600F7B017D04AF3212DDD2EF6003CC
:06B197007F40227F002230
:10924D008F328B338A34893578A9E6B4080BE53231
:10925D00640160057537808003753702AB33AA341E
:10926D00A935E4FDAF32128842EF60037F802212F0
:10927D003752FFD395374016EF9537F536D394080F
:10928D0040047D088004AF36AD07E4FB8041123702
:10929D0052FFC39537503DC3E5379FF53678A9E6A4
:1092AD0064087019E53264016013E536D394084003
:1092BD00047D088004AF36AD077B01801212375252
:1092CD007009E5362404FD7B0180047B01AD36AFCA
:0792DD003212DDD27F0022F6
:10DD9D00E4F537EB601374A22FF8E6FEC39D400542
:10DDAD00EE9DF6801AE4F6801374A22FF8C374FF6B
:10DDBD009DC3964005ED26F6800576FF7537011259
:05DDCD00E332AF372234
:10DDD200E4F538EB601374A52FF8E6FEC39D400509
:10DDE200EE9DF6801AE4F6801374A52FF8C374FF33
:10DDF2009DC3964005ED26F6800576FF7538011223
:05DE0200E0FFAF382233
:10B32F00C0053200020F40000002323200200A3204
:10B33F008080808080808080808080809AA0AB9A7F
:10B34F009397323232323232323232323232323208
:10B35F0032323232323280808080808080808067CB
:10B36F006156616063808080808080808080808073
:10B37F0080FFFFFFFFFFFFFFFFFFFFFFFFFFFFFF4D
:03B38F00FF0118A3
:105C260075F013901B4B121A7CE493FF74019322B8
:105C36007B017AF979557D047C00227B007A007914
:105C4600B67D017C00227B007A0079A87F807D08E2
:105C56007C007E032278A9E6FF12F871EF75F00941
:105C6600A424BCFDE5F03403FC78ABE6540F75F0D4
:105C760003A42DFFE5F03CFE7B017AF9794A7D030A
:105C86007C00227A0079A07FD77B007D027C007E93
:105C9600032278A27C007D007BFF7E007F06021631
:105CA600C190F94ECFF0A3EFF075F013227BFF7D84
:105CB600067C007E0322A42400FFE5F03403FE7C6C
:105CC6000022FE7B017AF979617D067C002290F93B
:105CD60052CFF0A3EFF0E4A3F022A424C0FFE5F036
:105CE6003401FE7C00227D087C007F887E032278BA
:105CF600A9E67B007A0079A27D0622EF75F008A45A
:105D06002400FFE5F02275F008A42420FFE5F03416
:105D1600062275F0107BFF7AB379807D10227B0115
:105D26007AF9794D7D0822CFF0A3EFF090F944E09F
:105D3600FFA3E022CFF0A3EFF090F93AE0FFA3E053
:105D46002225E0FF78C9E654FD4FF6227D007BFF51
:0A5D56007E00227BFF7C007E03220A
:1096E800C2047F147E0012F356E4F52C7A0079093F
:1096F8007FFE125C8F12E18EE509B43306E50A6439
:109708002A6009052CE52CC3940240E0E509B4332E
:1097180006E50A642A6004D204801212FC2312F9B6
:10972800C912CE0012C94E12FC2F12FC3590F95501
:10973800E0D39464500EA3E09464500890F958E084
:1097480094644002D20430041F7F0112718E12DF2C
:109758000C750933750A2A7B007A0079097D027C29
:0F976800007FFE7E0312E15F78A8E654F8F62238
:10DF0C00E4F533F509F54C754D00754E097B01FAB6
:10DF1C007DFE7FAE12A30978CD7606E4F533AB33E4
:10DF2C00E4FD7F7D7EC612E2790533E533C394852B
:03DF3C0040EC2294
:10718E008F3378A9E6F53478C9E6A2E1502990F953
:10719E0034E0FFC39410501FEF1313543FFF7B00D6
:1071AE007A00790912F68C90F934E0540325E02523
:1071BE00E02409F8E6F53512B3F512AC3012F3EC13
:1071CE0012F1A212F1BE12F7BD12B20312F6A01204
:1071DE00F1DA78C9E6A2E1507690F934E0C3941062
:1071EE00506D78ADE6C3940F4004E4F6800378AD9D
:1071FE000690F936E0F536A3E0F537A3E0F538A3AF
:10720E00E0F539783C7C007D007B007A0079357E94
:10721E00007F051216C112DA4EE490F94DF0E535F5
:10722E00125C26125CA7E535901B4D125C2C90F972
:10723E0050125CAAE535901B47125C2C125CD47878
:10724E00ADE6FF12E54978ADE690F934F08013789B
:10725E00C9E6A2E1400C90F934E0FF9444500312C9
:0E726E00BFE2E533700778A9A63412FC1D229A
:10E15F008E418F428C438D448B458A468947E478A4
:10E16F0007CEC313CE13D8F924A0FFE542FD854592
:0FE17F004C85464D85474EAB44AA4312A3092257
:10E18E008E3C8F3D8C3E8D3F8B408A418942E47898
:10E19E0007CEC313CE13D8F924A0FFE53DFD85406D
:0FE1AE0047854148854249AB3FAA3E12C2FB223A
:10E549008F3C78C9E6A2E1400AEF75F008A4FFAE56
:10E55900F0800F78C9E6A2E15010E53C125D023463
:0BE5690003FE125D247C0012E15F2223
:10BFE2008F3A78C9E6A2E14014EF75F008A4FFAEDB
:10BFF200F0125D247C0012E18E4034801778C9E68D
:10C00200A2E1502BE53A75F008125D24125CBC12D5
:10C01200E18E401BE490F94DF090F942E0FFA3E07D
:10C0220090F94E125D2D90F950125D3A125CD422B5
:10B3F50078C9E6FFA2E1E433F53BEF54FDF6E4F549
:10B405003AE490F94DF0E53A125C26125CA7E53A6C
:10B41500901B4D125C2C90F950125CAAE53A901BDA
:10B4250047125C2C125CD4AF3A12E549053AE53A6D
:10B43500C3944440CCE4F53AE53A125D18125CBC7D
:10B4450012E15F053AE53AC3940840ECE53B125D2D
:02B4550047228C
:10DA4E00E53F540FFEE4C4F8540FC868FFEEC4540B
:10DA5E00F048FEE53D540F4EF53DEF453EF53EE5F3
:10DA6E0040754000F53F78ADE675F0047B007A0016
:0ADA7E00793C7D04125CE002E15FD8
:10F68C00EF75F010A424C0FFE5F03401FE7D107C72
:04F69C000002E18EF9
:10F3EC00E4F53AE53A125D18125CE012E15F053A79
:08F3FC00E53AC3940440EC2241
:10EC7F008F3C78C9E6A2E14007125D013404800C95
:10EC8F0078C9E6A2E1500BE53C125D0C125CC8128C
:03EC9F00E15F2210
:10C75E008F2E78C9E6A2E1400F125D013404125CFF
:10C76E00C812E18E4031801478C9E6A2E15028E566
:10C77E002E125D0C125CC812E18E401B90F942E045
:10C78E00FFA3E090F961125D2D90F963125D3A906E
:08C79E00F965CFF0A3EFF022D2
:10AC300078C9E6FFA2E1E433F53BEF54FDF6E4F515
:10AC40003A75F013E53A125C2990F961125CAAE5B5
:10AC50003A901B4D125C2C90F963125CAAE53A9075
:10AC60001B47125C2C90F965CFF0A3EFF0AF3A12BE
:10AC7000EC7F053AE53AC3944440C6E4F53AE53A38
:10AC800075F010125D0FFE125D1B7C0012E15F0576
:0EAC90003AE53AC3940840E6E53B125D4722E0
:06FC1D00125C4C02E15FE5
:06FC2300125C4C02E18EB0
:10F1A2007BFF7AB3792F125C5212E15F78A87C0060
:0CF1B2007AB3792F125D527F080216C15B
:0EF8F8007B007A0079987F88125C5402E15FF1
:0CF9C9007B007A007998125CEC02E18E61
:10F1BE007BFF7AB37937125CEC12E15F78987C00B2
:0CF1CE007AB37937125D527F080216C137
:10CDC00078A9E67013FB125CFAFC7F907E0312E1F7
:10CDD0005F125C417F968022125CF57C00B4080EE5
:10CDE0007F987E0312E15F125C417F9E800C7FA0E2
:10CDF0007E0312E15F125C417FA67E0312E15F2297
:10CE000078A9E67013FB125CFAFC7F907E0312E1B6
:10CE10008E125C417F968022125CF57C00B4080E75
:10CE20007F987E0312E18E125C417F9E800C7FA072
:10CE30007E0312E18E125C417FA67E0312E18E22F8
:10B203007AB3793F125C9878B676057AB3793F7F43
:10B2130090125CB312E15F125C417F967E0312E1F0
:10B223005F7AB37945125C987AB379457F98125C5B
:10B23300B312E15F125C417F9E7E0312E15F78A24D
:10B243007C007D007BFF7AB3794B125CA07AB379E3
:10B253004B7D067FA0125D5912E15F125C417FA610
:05B263007E0302E15F23
:0FF87100EF24FE24FB500580007F00227F02223F
:10D13B0078A9E624FE601714601B14602614601C8B
:10D14B0014602024067026125C367FA8801A125CAD
:10D15B00367FAC8013125C367FB0800C125C367F4E
:0ED16B00B48005125C367FB87E0312E15F22AD
:10C94E0078A9E624FE601714601B14602614601C80
:10C95E0014602024067026125C367FA8801A125CA2
:10C96E00367FAC8013125C367FB0800C125C367F43
:10C97E00B48005125C367FB87E0312E18E90F955B5
:05C98E00E078AAF6228A
:10F7BD007AB379517D147FA8125D5912E15F02C9A8
:01F7CD004EED
:06FC2900125C5B02E15FCA
:06FC2F00125C5B02E18E95
:10F6A0007BFF7AB379657D1B7C007FBC7E0312E112
:04F6B0005F02FC2FCA
:06FC3500125C8902E18E61
:06FC3B00125C8902E15F8A
:10F1DA0078A07C007D007BFF7AB379907E007F0265
:0CF1EA001216C1125C8912E15F02FC35B4
:1089BA00AE44AF457C007D021217EAEF2BF545EE77
:1089CA003AF544AB35AA36A9370218361218D3E459
:1089DA007B02FAF9F81218D3AB3BAA3AA939A8389C
:1089EA0012CB2E8E448F45D3E5459400E54464802E
:1089FA00948022A804A905AA06AB07E0FEA3E0FF1B
:108A0A002290F959E0FEA3E0FFAC40AD4122AB3F12
:108A1A00AA3EA93DA83CAF3BAE3AAD39AC381218D4
:108A2A00C5A80422AEF0FBE4C39BFF74809EFEE45B
:108A3A009400FDE49400FC227A0079097B00D206B6
:108A4A007D0122E5455401FFC3E49FFFE49400FA47
:108A5A00AB072290F959E0FCA3E0FDEC22AB35AA62
:048A6A0036A93722D0
:10E64B0078A8E633502278BDE6A2E2501B128A422C
:10E65B007F0212DE3CE50954837002C32278BDE6CB
:0AE66B0054FBF654F7F6D322C32245
:103FC1008B358A368937E4FD7F1F12F9F97D807FB1
:103FD1004412F9F91289CDFFAEF012CB725002C32F
:103FE10022124150F540E50AF541E4FD7F4412F902
:103FF100F91289CDFFAEF012CB725002C3221241E9
:1040010050F542E50AF543128A0B121B0FA804A9C9
:1040110005AA06AB07AE42AF43E4FCFD1218B88F08
:104021003B8E3A8D398C38D3E5439490E542940127
:104031004029128A5D13FEED13FFE5432470FBE571
:104041004234FEFAD3EB9FEA9E400BE5412401FF87
:10405100E43540FE802F128A0B802A128A5DC31339
:10406100FEED13FFC374909543FB74019542FAD39F
:10407100EB9FEA9E400CE54124FFFFE54034FFFE43
:104081008003128A0B121B0FEF2490FFEE3401FE06
:10409100E43DFDE43C8F3F8E3E8D3DF53C128A1898
:1040A100C005C006C0071289CD128A2ED003D002E6
:1040B100D0011289D64009E54554017A00FB8003FD
:1040C100128A4D1289BA1241645002C322E5096075
:1040D1006E90F95930E119E0FEA3E0FFE4FCFDE543
:1040E1003F2FFFE53E3EFEED353DFDEC353C8017B3
:1040F100E0FEA3E0FBC3E53F9BFFE53E9EFEE53D01
:104101009400FDE53C94008F3F8E3E8D3DF53C12C1
:104111008A18C005C006C0071289CD128A2ED003A5
:10412100D002D0011289D64009E54554017A00FB3D
:104131008003128A4D1289BA1241645002C322AB24
:1041410035AA36A937E5448545F0121899D3227B63
:10415100007A007909C2067D027F4412DE3CE5093E
:10416100540F22AEF02545F545EE3544F544AF45F3
:05417100FE12CB7222DA
:10B63B008B358A368937E4FF12D8B1900C8BE493A3
:10B64B00FF128A67E48FF0121861128A671218369C
:10B65B00FFAEF012CB7250037F0222E509602E126F
:10B66B008A6730E10D12183624FFFFE5F034FFFE38
:10B67B00800A1218362401FFE435F0FE12CB72500B
:10B68B00037F0222E509540360037F01227F00221E
:10677B00E4F538F537F536F535FB7DFC7F4712E749
:10678B00717B107DEF7F5012E77112FAA87BFF7AB5
:10679B00F879017F3C12EFAE40030268747B407DB9
:1067AB00BF7F5212E771E4FD7F5912F9F9E4F50945
:1067BB00FB7A00790AD2067D037F5912DE3C850CE9
:1067CB0038850B37850A36850935E4FB7D5F7F52AB
:1067DB0012E7717A00793D128A467FAE12DE3C05D4
:1067EB003D053D7B007A00793ED2067D017FAF12DD
:1067FB00DE3CE53E5430C4540FFF7401A8070880FB
:10680B0002C333D8FCF53EFFE4FCFDFEFBFA79082E
:10681B00F81218D390F9591289FDE4FCFD1218D324
:10682B00AB38AA37A936A83512195E90F95D1289D3
:10683B00FDE4FCFD1218D3C007AF3DAB07E4FAF93A
:10684B00F8D00712195E8F3C8E3B8D3A8C39C3E41E
:10685B00953CFF7480953BFEE4953AFDE495398FAA
:10686B003C8E3B8D3AF539800BE4753CFF753BFF55
:10687B00F53AF539E4FB7DEF7F5012E771AE3BAF94
:02688B003C22AD
:10CB72008E468F47E4FB7DFE7F4712E77112FAA8CB
:10CB8200AF47AE4612EE78E4FD7F0212F9F97F0854
:10CB920012D03F7F0812D03F128D36500122128AE6
:10CBA200427F0212DE3CE50954606002D32253093F
:03CBB20003C32298
:10464D00E4F532FB7A007909C2067D027FB512DEF0
:10465D003CE509540FF52DE50AF52EE4FB7DFD7FB4
:10466D00BB12E771E4FF12D8B112677B8E2F8F302A
:10467D0012CB7250037F0222E5097053433201E5DC
:10468D00302418FFE4352FFE12CB7250037F022227
:10469D00E5097003433202E53024E8FFE52F34FFCE
:1046AD00FE12CB7250037F0222E5097003433204E0
:1046BD00E532B40309740C2530F530E4800DE53294
:1046CD00B4050C74F42530F53074FF352FF52FE556
:1046DD003260030247B0AF2EAE2D12EE78E4F53204
:1046ED00753118AF2EAE2D12CB7250037F0222E51D
:1046FD0009603CE50930E11AE5327E0030E0047FC7
:10470D000C80027F18C3E52E9FF52EE52D9EF52D0D
:10471D008017E5327E0030E1047F0C80027F18EFB8
:10472D00252EF52EEE352DF52D850932D531B4E535
:10473D003170037F0122E532701CE52E2418FFE451
:10474D00352DFE12CB7250037F0222E5096003FF67
:10475D0080027F018F32852D2F852E30753104E536
:10476D003230E00BE530240CFFE4352FFE800AE5F6
:10477D003024F4FFE52F34FFFE8E338F3412CB72CD
:10478D0050037F0222E509700985332F853430D51A
:10479D0031CDE52E2530FFE52D352FC313F52FEF48
:1047AD0013F5307B007A00792F123FC140037F0251
:1047BD00227B007A00792F12B63B8F32E5326001F1
:0A47CD002278BDE64408F67F0022C2
:10F5D00012FC8912FC8F02F0A412F2817847E475C4
:05F5E000F001021A9188
:03FC8900D29022F4
:03FC8C00C2902201
:03FC8F00D29122ED
:03FC9200C29122FA
:04FC85000000002259
:10F7040000000000000000000000000000000000F5
:03F71400000022D0
:06F09E0012FC8C12FC8F35
:10F0A400000000000000000000000000000000005C
:07F0B4000000000000002233
:10F5360012F5D33091FD12FC8912FC8C12F0A41244
:06F54600FC9212E57422A4
:06FC410012F09E02FC8996
:0FF8800012F5D0A290E433FF12FC9212FC892201
:06FC470012F09E02FC9287
:06FC4D0012F5D002FC924A
:10E57400E4FEEF33500512FC89800312FC8C12F583
:10E58400D312FC92EF25E0FF0EBE08E612F880EFEE
:0BE59400600612FC417F00227F012284
:10F28100E4FF12FC89FE12F5D3EF25E0FFA290E422
:0BF29100334FFF12FC920EBE08EC226F
:10EB3B008D4F7550FF8F51AF5112F536EF64016059
:10EB4B0005D550F3C322AF4F12E574EF6401600299
:04EB5B00C322D322DC
:10C2FB008F438A458B46E54645457002C322AF43C3
:10C30B0012EB3B400122E5434401FF12F536EF648B
:10C31B00016002C322E546154670021545144545DA
:10C32B00600C12F5D9EF12177112FC4780E712F56A
:0DC33B00D9EF12177112FC4D12FC41D322F4
:10A309008F488D498A4A8B4BE54B454A7002C322D7
:10A31900D3E54B9400E54A94004061AD49AF48123A
:10A32900EB3B400122E549540FFFC374109FFDFF29
:10A339007E00D3E54B9FE54A9E401CE54B9FF54BBC
:10A34900E54A9EF54AE549C394F0400405480548A5
:10A35900ED2549F5498007AD4BE4F54AF54BAF05C5
:10A369001DEF6013784C12F5DE121709FF12E57420
:0EA37900EF640160E9C32212FC418094D322FC
:03000B0002A6D872
:10A6D800C0E0C0F0C083C082C0D075D000C000C048
:10A6E80001C002C003C004C005C006C007D28C75F3
:10A6F8008A52758CF8D219D5710920180612DAC257
:10A7080075710AE5616023F460200564E5647002F0
:10A718000563AE63FFE4FCFD7B607AEAF9F8C312D7
:10A7280019FE70061561F563F564D007D006D005EB
:10A73800D004D003D002D001D000D0D0D082D083B2
:05A74800D0F0D0E0326A
:109B4D00200A5E90F967E599F0D20AE0121AB69BE9
:109B5D0091A09B75C09B75C19B7DD09B7DD19B8535
:109B6D00E09B7DE100009B8D90F9717404F0802ADB
:109B7D0090F9717403F0802290F9717402F0801ADB
:109B8D00C20A801690F969E090F971B41F07740547
:109B9D00F0C20B80057405F0D20B90F9707401F0D2
:109BAD002290F970E02467F582E434F9F583E599A4
:109BBD00F090F970E004F090F971E0FF90F970E029
:099BCD00D39F4004D20DC20A220C
:0300230002E1BD3A
:10E1BD00C0E0C083C082C0D075D000C000C007C20F
:10E1CD00AC309904C2998008309805129B4DC298C5
:0FE1DD00D2ACD007D000D0D0D082D083D0E032E7
:10F5E50075634B657953746174653D3D3D3D3D3DA6
:05F5F5003D3D3D0A0050
:053C1300C11E011F01AC
:07FBED0090FF5F7401F0229C
:10F0BB008E308F31E5311531AE30700215304E6028
:0DF0CB000B12FC8512FC8512F70480E82270
:10DF3F008F2EE4F52FE490FF5FF07F31FE12F0BBE0
:10DF4F0012FBEDE52E30E0047F8C80027F3D7E00DA
:10DF5F0012F0BBE52EC313F52E052FE52FC3940842
:03DF6F0040D3227A
:10A405008F2D90FF04E04480F012FCA4E490FF5FE0
:10A41500F07F0D7E0312F0BB12FBED7F7EFE12F086
:10A42500BB12FC80AF2D12DF3FE490FF5FF07F3859
:10A43500FE12F0BB12FBED12FCA790FF04E0547F67
:10A44500F012A44D12A44D227F347E0C12F0BB9065
:10A45500FF04E04480F012FCA412FC80AF2D12DF53
:10A465003FE490FF5FF07F38FE12F0BB90FF5F7412
:0DA4750001F012FCA790FF04E0547FF022DC
:01FCB300222E
:0CF9D500E51FB41005751F01D322C322EA
:10ED920078C2760812E59F501478C0E608F612BAD7
:10EDA200A078C0A60712E21B4006127E0D12F7AB36
:01EDB200223E
:0FF88F0078C0E608F612BAA078C0A60702E21BFE
:0AFA6C0078C3E654FEF654FDF622BE
:10E59F0078C3E6FFA2E1500413500122EFA2E1403D
:10E5AF0018440278C3F67BFF7AFB79DF7F027E0087
:0BE5BF007D007C0012B69BC322C3222B
:07FBDF0078C3E64401F622A1
:07FBE60078C3E64404F62297
:10E1EC0079C1E778C066B5070578C2A6052278C361
:10E1FC00E6A2E35019A2E2500418A605227BFF7A8E
:0FE20C00FB79E67F327E007D007C0012AD7A2226
:10E21B0078C0E6FF6401702508E66F6401701E7F0D
:10E22B0019FE12F35612BAA078C0EFF60866FFBFBC
:0FE23B00010B12FCB478CAE64401F6D322C322C9
:10BAA000E4F55120970343510190FF5DE020E0034E
:10BAB00043510390FF5CE020E00343510490FF5B9F
:10BAC000E020E00343510690FF5AE020E003435199
:10BAD0000290FF58E020E00343510890FF59E02016
:10BAE000E003435107E551600C12FA6C7EF57FE5E7
:08BAF000AD5112B000AF51226C
:01FCB400222D
:107E0D0078C0E624F9600514600880107D157F07A1
:107E1D0080047D147F0812E1EC027EC8E5686038AD
:107E2D0078AFE6A2E1403178C7E6644B600D78BFCC
:107E3D00E6FF64066005EF6405701D12F9D5501854
:107E4D0078BFE6700678CAE64401F678AFE654FDD1
:107E5D004402F678C8760F22E5686044FEE4FFEE32
:107E6D0030E004EF2480FFEE30E10474402FFFEE8C
:107E7D0030E20474202FFFEE30E30474102FFFEE78
:107E8D0030E40474082FFFEE30E50474042FFFEE88
:107E9D0030E6020F0FEE30E7010F6307FF12A40566
:107EAD0078C27608E4F56878C2E6B4080E08E654A0
:107EBD00FBF67BFF7AFB79E612D8EC78A9E6B404E1
:107ECD000DE508F46008AF0812FCB37508FF78BF24
:087EDD00E6700478C276082269
:100026000005008B000205008B012804018B78096E
:10003600018C0015051C8080000000FFFFFFFFFFFC
:10004600FF0046C118000100000017110103083423
:1000560020782AEE91A3544C99260F5054A70B00F2
:10006600A940614081C08180818A818C7140D1C064
:100076007D4B80A072B02D40509836009A0011003A
:10008600001CF00AD0B420E02D10126CA2009832A9
:100096001100001E083980007138264030203600D5
:1000A600819121000018000000FF004C4344204DC0
:1000B6004F4E0A2020202020005900FFFFFFFFFF9F
:1000C600FF001E6D7EC3B6CF0000031201030D466E
:1000D6002778EAD9B0A357499C2511494BA54E006C
:1000E60081800101A940D1C0010101010101010185
:1000F6001A3680A070381F4030203500BC8621009B
:10010600001A662150A051001E3048883500BC8672
:100116002100001A000000FD003A4B1F3D0F000AA7
:10012600202020202020000000FC004C47205456B0
:100136000A20202020202020010A00FFFFFFFFFFC9
:10014600FF0058E10100010000001D1001030C0032
:1001560000008A0013A057499B2610484EADCF00D9
:10016600454A614C81809500818A818CB3000101EA
:1001760021399040621A254068B81600D928110026
:100186000000000000FC00414E414C4F470A0A0A9D
:100196000A0A0A0A000000FD003C4B3C500F000A08
:1001A6002020202020200E2150A051001B3040721C
:1001B6001500D0000100000600A600FFFFFFFFFFAC
:1001C600FF0051F02009640000001E1001030C2BF3
:1001D6001B788AF0659857519127020505ADCF0027
:1001E600818081C0010101010101010101010101BB
:1001F600CC29A0D05184223050983600000000004F
:10020600001C00000010003F30503F0A0A0A0A0A8C
:100216000A0A0A0AC422A0A050841A3030203600E6
:1002260000000000001A000000FC00416E616C6FC7
:10023600670A0A0A0A0A0A0A20C900FFFFFFFFFF27
:10024600FF0015CDD20F0101010100100103685214
:100256002E782A4AEAA456479B2412484A2FCE00F3
:100266003159455901010101010101010101010154
:100276001B2150A051001E304888350000000000A8
:10028600001E0E1F008051001E3040803700000007
:100296000000001C000000FD0037561F3D09000A43
:1002A600202020202020000000FC00454E4D415219
:1002B600204C434454560A0A007200FFFFFFFFFF1A
:1002C600FF0058E101000100000017120103083485
:1002D600207801EE91A3544C99260F5054AFCF00CD
:1002E6008180818A818C01010101010101010101E5
:1002F600942A00B051002440508817009A0011003B
:100306000004000000100000163030202500D00048
:100316000100001E00000010003826403020350085
:1003260081912100001C000000FF00416E616C6F8E
:10033600670A0A0A0A0A0A0A006000FFFFFFFFFFAF
:10034600FF004F2D150038564C052F0F010368008E
:1003560000FFEABBB9A3524698240F484CAFCE0122
:100366000101010101010101010101010101010177
:10037600D020009851201E30D080470468221100FA
:10038600001C4826009851201E30D0804704682261
:100396001100001C3629009851201E30D0804704D9
:1003A60068221100001C000000FC004C4D3135583D
:1003B600440A0A0A0A0A0A0A00D200FFFFFFFFFFE0
:1003C600FF0058E16226010000000B1201030C3405
:1003D6002078EFC395A3594B9524135054BFCE00F4
:1003E60001010101010101010101010101010101F7
:1003F6006419004041002630188836000840210064
:10040600001800000010001A274068B03600E02CE3
:100416001100001C0000001000B023403020360000
:1004260008402100001A000000FC00416E61676F61
:100436006C0A0A0A0A0A0A0A002D00FFFFFFFFFFDC
:10044600FF0058E16226010000000B1201030C3484
:100456002078EFC395A3594B9524135054BFC00081
:100466000101010101010101010101010101010176
:10047600A00F200031581C202880140008402100BD
:10048600001E00000010001A274068B03600E02C5D
:100496001100001C0000001000B023403020360080
:1004A60008402100001A000000FC00416E61676FE1
:1004B6006C0A0A0A0A0A0A0A000F044A0000000027
:1004C60000200500052005A400100400041004B057
:1004D6001002005003A200C8037A01EA0705A4052A
:1004E600A4000A000000000020055605760640001C
:1004F6001003000310032610030050033E0064039C
:100506000201EA0006400640044A000000000020FE
:100516000500052005A400100400041004B0100214
:10052600005003A200C8037A01EA0705A405A40443
:100536000A000000000020040004200480000C03D0
:1005460000030C03601003004103A200C8037A01F4
:10055600EA0004CD04B0180E0000000000200400DC
:100566000420054000100300031003341401004169
:1005760003A200C8037A01EA0005640564180E00A8
:10058600000000003C0320035C0420000F02580218
:100596006702711003002D03A200C8037A01EA0264
:1005A60004000400180E00000000003C0500053C95
:1005B60005DC00120320033203431003004B033E05
:1005C6000064030201EA0205780570004E0000008F
:1005D6000000200578059806180005041A041F0473
:1005E600381003005503A200C8037A01EA0506A4E1
:1005F6000618004A00000000002005A005C006906D
:1006060000110384039403A21003005503A200C83B
:10061600037A01EA0506A40690004A0000000000DD
:100626002005A005C0069000110384039403A210C0
:1006360003005503A200C8037A01EA0506A4069042
:10064600180E000000000020028002A002EE001436
:1006560001E001F401F41001002803A200C8037AA6
:1006660001EA02035C0348044E0000000000200576
:1006760000052005A400100400041004B0100200B8
:100686005003A200C8037A01EA0705B405A0000AD0
:100696000000000000200500052005A00010030052
:1006A600031003201401004103A200C8037A01EAE3
:1006B6000005C805B4000E00000000002005000576
:1006C6002005A000100300031003201401004103BD
:1006D600A200C8037A01EA0005C805B4040A0000AE
:1006E6000000002005000520053C001002D002E0B5
:1006F60003211003004103A200C8037A01EA0005A2
:10070600A0055A040E000000000020050005200583
:100716003C001002D002E003211003004103A200B6
:10072600C8037A01EA0005A00550000E000000008B
:1007360000200500052005780010035603660366B1
:100746001401005503A200C8037A01EA0005A005BA
:1007560064000E000000000020048004A0054C0088
:10076600100300031003261002004B03A200C80367
:100776007A01EA00058C056403600019029A001EDE
:10078600010E035A001B0280001B00E2000000005D
:100796000000000000000000000000000000000053
:1007A60000000000000000000500F71C000400F433
:1007B6006A050095138804018B000B018C01080063
:1007C6000000000000050004000004010700040109
:1007D6000B0006001100000004014600040147005A
:1007E60004015C000B015D041004100201022104E7
:1007F600018D0004018E00040162030401670004F8
:10080600016C0004008900040197E9070098044779
:1008160000180B00A10F80330E04046F090401AD0C
:10082600500600B50000040401DC8C0401DD080458
:1008360001DC000401BD020B00C180200300317001
:10084600E3240700D1921030000401DA000401DC31
:10085600800401DD040401DC8A0501DD252504018F
:10086600DC8E0401DD000401DC000401B216040183
:10087600B3000801B492940019190400D7010401C9
:10088600204004011FA00400FA040400FD04040132
:10089600280F04014C0B0006009040021006009041
:1008A60000037006009040030804011E02000400C5
:1008B600030002000000FE0FFA0FF60FF20FEC0F16
:1008C600E60FE00FD90FD20FCA0FC30FBB0FCA0F27
:1008D600E00FF70F1300310054007800A100CB00A1
:1008E600FA0028015B018D01C301F7012E0279048C
:1008F600720468045504400425040704E203BD039A
:100906009103650334030303CE0299026302B90F10
:10091600AB0F9F0F980F910F8D0F8B0F8B0F8C0FB7
:100926008F0F930F980F9E0FA50FAD0FB40FF90FF2
:10093600F90FF80FF50FF30FF00FEC0FE80FE20FBA
:10094600DD0FD70FD10FCA0FC40FBE0FB70FF60FAB
:100956000E002700450063008500A700CE00F600C4
:1009660020014A017901A601D601040235022F04AD
:1009760028041F041004FE03E703CE03AF038F030E
:10098600690344031903EF02C10293026302E20FF3
:10099600D10FC20FB60FAC0FA40F9F0F9B0F990F6D
:1009A6009A0F9B0F9D0FA10FA50FAB0FB10FED0F68
:1009B600ED0FEB0FE90FE60FE30FDF0FDB0FD70F9E
:1009C600D20FCC0FC80FC30FBE0FB90FB50F25003E
:1009D60042005C007D009B00BD00DE000301270194
:1009E6004E0174019B01C201EB0111023A02DC03C4
:1009F600CA03C403B603A8039403810368034E0322
:100A060031031303F102D002AB0288026002120026
:100A16000700F50FE40FD70FCC0FC20FBA0FB40FB4
:100A2600AF0FAD0FAC0FAB0FAC0FAE0FB10FE00FAA
:100A3600E90FE70FE70FE30FE20FDE0FDB0FD70F2C
:100A4600D30FCF0FCC0FC90FC60FC40FC30F5D0056
:100A560074008D00AA00C600E500040124014401CB
:100A660067018601A901CA01ED010D022E027A0372
:100A76006C0367035A035003400331031E030B0341
:100A8600F302DD02C202A7028A026D024D0249008C
:100A96003700250015000700F90FED0FE30FDA0FF9
:100AA600D30FCE0FC90FC60FC30FC20FC20FD60F7B
:100AB600E10FE00FE10FE00FE00FDD0FDC0FDB0FC2
:100AC600D90FD70FD70FD50FD60FD50FD70F7F005A
:100AD6009400AB00C500DE00F900140132014E019E
:100AE6006C018801A701C401E201FE011B0240035B
:100AF60031032C031F0317030903FC02EB02DA027E
:100B0600C602B3029B0285026B02520236026B00DA
:100B16005A0049003B002B001E0013000700FD0F82
:100B2600F50FEE0FE70FE20FDD0FDB0FD80FFF0813
:100B3600B4FF0934FF09B4FF0A34FF0AB400040203
:100B4600040404060408040A040C040E0410041227
:100B5600041404160418041A041C041E0420042297
:100B6600042404260428042A042C042E0430043207
:100B7600043404360438043A043C043E0440044277
:100B8600044404460448044A044C044E04500452E7
:100B9600045404560458045A045C045E0460046257
:100BA600046404660468046A046C046E04700472C7
:100BB600047404760478047A047C047E0480048237
:100BC600048404860488048A048C048E04900492A7
:100BD600049404960498049A049C049E04A004A217
:100BE60004A404A604A804AA04AC04AE04B004B287
:100BF60004B404B604B804BA04BC04BE04C004C2F7
:100C060004C404C604C804CA04CC04CE04D004D266
:100C160004D404D604D804DA04DC04DE04E004E2D6
:100C260004E404E604E804EA04EC04EE04F004F246
:100C360004F404F604F804FA04FC04FE04E4A20531
:100C460037F63169CB1FD2B0E6451B87C69EB4C6C0
:100C560038D4DB121B01321203231030212310304B
:100C66002101321203302101321203231007F869E1
:100C76001EAD52C3B4AD52C3B407F8691EAD526976
:100C86001EC3B407F80000000000000000000000CA
:100C960000000000008666C3B4CE1E100C188666DF
:100CA600C3B4CE1E100C188666C3B4CE1E100C1824
:100CB6008666C3B4CE1E100C18040C1A2B41576D51
:100CC6008095A9BDD0E2F2FC10008014340E1D2DD3
:100CD6003D4D5D6D7D8E9DADBCCADBEB10004114B4
:100CE600340F1D2D3E4B5C6D8091A2B3C4D4E3F24C
:100CF60010005D1430182C3F5061738599ADC0D239
:100D0600E0EBF5FC100064143AFF0CADFF0CA4FFF9
:100D16000CB6FF0C9BFF0CE7FF0CD3FF0CFBFF0C84
:100D2600BF0C00FC00D600BA00AC00AC00BA00CE86
:100D360000E70000CFCFADAD9D9D9E9EADADC5C574
:100D4600E3E300001CE42FD138C838C82FD121DFD7
:100D560010F000000800CCB60084008000800084FB
:100D660000A700D4000000CF31AD539D639E62AD55
:100D760053C53BE31D0000CFCFADAD9D9D9E9EADFF
:100D8600ADC5C5E3E30000050086E24ACD7CC37F1E
:100D9600C37FCD7CDB59EE2C0000FB25F83EF84BDB
:100DA600FA4BFE3E022D07160D00CF31AD539D6363
:100DB6009E62AD53C53BE31D000003006F10291C66
:100DC60044215222521C4414310A180000220E38C3
:100DD60017441C441C381729111408000000200071
:100DE60036FD41F941F336ED27E613DF000C00FC32
:100DF60000E500D300C900C900D300DF00F0000001
:100E0600E5E5D2D2C9C9CACAD2D2DFDFF0F0000006
:100E160012EE1FE125DB25DB1FE116EA0AF60000CC
:100E26000800CCD700BC00AE00AE00BC00CF00E886
:100E3600000000E51BD22EC937CA36D22EDF21F0BC
:100E4600100000E5E5D2D2C9C9CACAD2D2DFDFF0A6
:100E5600F00000050086F029E444DF52DE52E44447
:100E6600EC31F6180000FE19FC29FC32FE3201298D
:100E7600041E090F0D00E51BD22EC937CA36D22E25
:100E8600DF21F010000003006F07120D1F0F250F62
:100E9600250C1F0916040B00000F061A0B1F0D1F49
:100EA6000D1A0A120709040000FE12FD1FF925F5A6
:100EB60025F01FEB16E50BDF000C2DF606B505B584
:100EC60006A606A604C402E201EA0000F6B5F6B5D7
:100ED600F5A6F5A6F8C4FCE2FDEA000034D334D347
:100EE6003EC93FC92ADB14EE0FF30000083FAAA251
:100EF600F7A1F78EF58EF5B4F9DBFDE4FD0000A948
:100F060017A81596199518B80DDA01E2FEFAF6B289
:100F1600D6B2D7A2CEA2CEC2DFE1EFE9F30000033C
:100F260077660C390C390F450E450A2E0517031145
:100F3600000010271127132E142E0D1F070F050B67
:100F4600000000270027002E002E011F010F000BB6
:100F560000000DDD5520DD20DD26D526D619E40C52
:100F6600F309F600001AD41BD320CA20CA15DD0BDC
:100F7600EE08F3000023E524E62BE02BDF1CEA0E47
:100F8600F50AF80000050011E04EE04EDA5DD95D85
:100F9600E73EF31FF7170000ED3EED3EE94BEA4B47
:100FA600F132F819FB120000E03CE03CD948D9497F
:100FB600E631F318F61100000200CC06060A0A0B09
:100FC6000B0A0A0A0A06060404000009000E0010AD
:100FD6000010000E000900070000000009000E00C6
:100FE600100010000E0009000700000600CCFA06EB
:100FF600F60AF50BF60AF60AFA06FC0400000009E2
:10100600000E00100010000E000900070000F70097
:10101600F200F000F000F200F700F90000000A000C
:10102600CCFAFAF6F6F5F5F6F6F6F6FAFAFCFC0060
:1010360000F700F200F000F000F200F700F90000FF
:101046000000F700F200F000F000F200F700F900EF
:10105600000E00CC06FA0AF60BF50AF60AF606FAB0
:1010660004FC000000F700F200F000F000F200F7C8
:1010760000F9000009000E00100010000E00090023
:1010860007000000FF0FBEFF0FF1FF1024FF1057EF
:10109600FF0EBFFF0EF2FF0F25FF0F58FF0D27FFB4
:1010A6000D5AFF0D8DFF0DC0FF0DF3FF0E26FF0E2F
:1010B60059FF0E8CFF0EBFFF0EF2FF0F25FF0F58D4
:1010C600FF0F8B3A21170672603B6E0C58164C5B6D
:1010D6003B684B2F7B5D64106071416D4A1F48353C
:1010E600784B6A4B3C692A2038551C1016095D0D51
:1010F600076E7A751A35557B5C260D2C491A1B3EF0
:10110600551F4011244B4A5D564B5C62700B1052C2
:101116003F2B4D5D06781672702E063A2C6006122D
:101126006C325554623805134249406154280C4AC2
:10113600217C324B74045D106972625D77550D191E
:101146007959430A5F0D50584F4842146465542F2D
:101156007A750448350059160E2F4B4A7B046C1AD3
:101166006D4B4450116363476E1A6B0F4C3E176606
:101176000D3B3A47625A253D0E1D55420F43603ED0
:101186007E563C444A443B69171B4719772C7D72AF
:101196000366537F5A03261701285E091D4313353C
:1011A600264C151E7F4D6B4D5246003C385C646FD5
:1011B600727811306547707A3C3869782635093778
:1011C600143457734D28287E5A280908286C69421A
:1011D6004331155423601C03487D48255F2B046C5E
:1011E600422266112A1A1429685973766116003E3E
:1011F6001131201059134454324F0E7647136F7E27
:10120600245A6A0400D7010500D800FF0500D8015A
:10121600210500D802AA0500D803270500D80468CE
:0112260000C7
:103C18000108FF50F8AA323032355631334320308C
:103C280039303130310048F8BA56455253494F4E71
:103C3800004BF89F4252494748544E455353004958
:103C4800F87F434F4E54524153540046F8005245B2
:103C5800534554004BF83C414443204F4646534596
:103C6800540049F864414443204741494E0046F80E
:103C78000C393330304B0046F806363530304B00BF
:103C880046F812353830304B0045F86D53524742EC
:103C98000045F821555345520049F84742555249C5
:103CA8004E20494E004DF8724F5344204C414E4728
:103CB80055414745004AF853504F57455220534500
:103CC80054004BF894504F5745522055502020002F
:103CD8004BF831504F57455220444F574E004BF840
:103CE80026504F57455220534156450047F85D4CE2
:103CF8004F474F454E0044F888454D430045F81C52
:103D0800455849540043F8504F4E0048F88C4449F0
:0D3D18005341424C450044F8184F46460008
:10F29C0075F027A424C0F9740435F0FA7BFF78C20A
:0BF2AC007CF87D017E007F270216C168
:109D6C0078C3E654F7F678CAE654FDF654FBFFF6D2
:109D7C0078BDE654F7F6EF54FEFF78CAF678C9E6DC
:109D8C0054FEFEF6EF4408FF78CAF690FF50E0C48C
:109D9C0054F0FDEF54EF4DF6EE54FB78C9F6E47831
:109DAC00BFF6F563F56478A8E6FF540775F00FA4C9
:109DBC00F5616004EF3340037561FF789A763208E1
:109DCC007632D390F8CBE0940090F8CAE09404502B
:109DDC001490F8D3E0940090F8D2E09403500678F5
:069DEC0099E654EFF62297
:02FCAA00D32263
:02FCAC00D32261
:10EDB300C20478A9E624F9600B14600824077006DE
:10EDC300D2048002D204300407E478A9F612FC1DB1
:01EDD300221D
:107C5A0012B392A2B3E433F50CA2B4E433F50BA247
:107C6A00B5E433F50AE50B25E0FFE50A25E025E052
:107C7A004F450CF519F45407F51912F29CE519123F
:107C8A00F29C12FCA412F6C812F95A12FAF012FA6D
:107C9A00DE78CAE654FBF6E4F57312FCB81296E8ED
:107CAA0012EDB37569FC12FCAA50FB12F1F612FA36
:107CBA006C129D6C12980612EDF512F32212EC3733
:107CCA0012FCA77B017A2F79B512EA827898E654DA
:107CDA007FF678AFE654FDF613501278A8E63340E3
:107CEA000C78AFE654F7F678CAE64401F6789DE6D2
:107CFA00C45407FF700878A8E6547FF6800FBF01C6
:107D0A000C78A8E633400678CAE64401F67898E685
:107D1A0054FEF678AFE654FEF678ABE654EFF67802
:0A7D2A009DE6547FF678A976052245
:10E67500C203127C5A90FF04E0547FF012FCAA50AA
:10E68500F112FCAC50EC12DF7212ED9212FC533019
:0AE6950003EA123802127FB980E296
:10B39200E4F58EF5A8758911C28CC28D758A527535
:10B3A2008CF8C28EC28F12FC09E490FF09F090FF64
:10B3B200007406F0E490FF02F0A374FEF0A3744060
:10B3C200F0A374C0F090FF017443F090FF20740763
:10B3D200F090FF23F090FF2C740CF090FF307490EB
:10B3E200F0A37401F0E490FF35F012F9EDD29475F8
:03B3F200A882220C
:0FF89E007D807F4F12F6B4EF24FF500122C3226A
:0FF8AD007D807F4C12F6B4EF24FF500122C3225E
:10F801007D207F5212F6B4EF24FF4002D322C3229F
:10F811007D207F0512F6B4EF24FF4002D322C322DC
:09FABA007B107DEF7F0502E7716E
:09FAC300E4FB7DEF7F0502E77111
:10EDD4007D107F0512F6B4EF24FF50147B207DDFF5
:10EDE4007F0512E7717BFF7AF879117F3C12EFAE51
:01EDF40022FC
:0EF90600E4FD7F0212F9F9E4FD7F0302F9F936
:0EF91400E4FD7F8D12F9F97D207F8E02F9F956
:06FC530012F7F002DC5282
:101B3C00020280015E013B02BC0A0A032001C100C3
:101B4C0090003E020280015E017A03520F0F0340A7
:101B5C0001BD009A003F0D02D00190013B02BC0A6E
:101B6C000A038401C100A200250F02D00190017C60
:101B7C0003520F0F03A801BE00B4002D0F02800109
:101B8C00E0013B02580A0A0320020D009000230FCB
:101B9C00028001E0015E02BC0A0A0360020D00A093
:101BAC00002A0F028001E0015E02BC0A0A036001F8
:101BBC00F300A0002A0F028001E0017A02D80A0A81
:101BCC000340020800A8001F0F028001E001770209
:101BDC00EE0A0A034801F400B800130F028001E07A
:101BEC0001B103520A0A034001FE0088001C0F03D6
:101BFC00200258015F02320A0A0400027100C80078
:101C0C00180F03200258017A025B0A0A042002749E
:101C1C0000D8001B0F0320025801B802C10A0A04A5
:101C2C0048027000D8001B0F0320025801E002D0BC
:101C3C000A0A0410029A00B8001D0F032002580172
:101C4C00D402EE0A0A0420027100F000180F0320DF
:101C5C000258021803520A0A0418027700D8001E10
:101C6C000F0340027001F102E90A0A0480029B0191
:101C7C0020002A0B0400030001E30258050A05406A
:101C8C000326012800230B04000300023402BC0AC3
:101C9C000A05300326011800230704000300024143
:101CAC0002D00A0A0510032600F900240B040003D5
:101CBC0000025802EE0A0A052003200110001F0F33
:101CCC000400030002AA03520A0A0560032801302B
:101CDC0000270F04000320026C02E40A0A053003FB
:101CEC0045010800230F0400032002CB03520A0A0B
:101CFC0005280345011800230F0480036002190214
:101D0C00580A0A05E8037E012C001E0F04800360AC
:101D1C00028202BE0A0A05C00392012000310F04A0
:101D2C0080036002A302EE0A0A06400384018000CD
:101D3C00230F04800360030203520A0A0628038B54
:101D4C000168002A0F0480036602AE02EE0A0A053F
:101D5C00B003930110002A0F04800384026A0294DA
:101D6C000A0A05F803A9015000230F04800384021A
:101D7C00CE02FE0A0A05E003A9014000230F05006C
:101D8C0002D001BF02580A0A067802EA0153001970
:101D9C000F050002D0023402EE0A0A069802EF0187
:101DAC0054001F040500030001DA0258050A0680DE
:101DBC00031E0140001B020500030001DA02580556
:101DCC000A05A0031600700013040500030002307E
:101DDC0002BC0A0A069C031F0150001F04050003E5
:101DEC0000025902EE0A0A06AA0321015A0021092F
:101DFC000550030001DD0258050A06F6031A0160BE
:101E0C00001A040500032001F002580A0A06900388
:101E1C003E010A0020040500032001BB02580A0AF7
:101E2C000690034A010A00200F0500032002470216
:101E3C00BC0A0A068C0321015A00330F050003204B
:101E4C00025802D00A0A06A00321015A00230F05EA
:101E5C00000320027002EE0A0A06BE0321015A009A
:101E6C00250F050003C0025802580A0A070803E8A8
:101E7C0001A800270F050003C002EE02EE0A0A06B5
:101E8C009003E8017000270F050003C0035C0352A8
:101E9C000A0A06C003F3018000320F050004000299
:101EAC008002580A0A0698042A016800290F0500C6
:101EBC00040002EA02BC0A0A06BA042901670028D7
:101ECC000F05000400032002EE0A0A0698042A01FA
:101EDC008800290F05000400038F03520A0A06C06C
:101EEC0004300180002F0D05A00384022F02560A36
:101EFC000A077003A60180001F0205A00384022DAF
:101F0C0002580A0A0640039E007000170F05A00332
:101F1C008402C202EE0A0A079003AE019000270B5E
:101F2C00064004B002EE0258050A087004E201F003
:101F3C0000310F064004B0032C028A0A0A08700410
:101F4C00E201F000310F064004B0036B02BC0A0A38
:101F5C00087004E201F000310A064004B003A90243
:101F6C00EE0A0A087004E201F000310F064004B0DA
:101F7C00042603520A0A087004E201F000310D062F
:101F8C0090041A028D02580A0A08C0044101C800C4
:101F9C0024020690041A028702580A0A08700438B0
:101FAC000070001B0D0690041A033702EE0A0A0893
:101FBC00E0044B01D8002E020690041A032F02EE07
:101FCC000A0A073004400070002305078004B002A1
:101FDC00EA02580A0A0A2004DD0218002A020780C5
:101FEC0004B002E402580A0A082004D3007000204E
:101FFC0005078004B003AC02EE0A0A0A3004E702BB
:10200C002800340D078005A0038402580A0A0A2808
:10201C0005DC0228003B0D05A000F0009D02580ACB
:10202C000A06B4020D0114003B0D0780021C01517D
:0C203C0002580A0A0898023200EC001456
:0E3D250001BF0001BD0001B9FF01BAFFC11FBF
:104ACF0075F013901B47121A7CE493FF7401932225
:104ADF0075F013901B46121A7CE493FDD3EF9D746F
:104AEF0080F86E982290F938E0FCA3E0FDC322E035
:104AFF00FCA3E0FDECC313FEED13FF7C00ED5401AE
:104B0F002FFFEC3E2290F940E0FEA3E0FBAA06E463
:104B1F00F9F822CFF0A3EFF0E52D75F013A4228F53
:104B2F00137B007A007909C20622CFF0A3EFF0754C
:104B3F00F013E52D22C390F939E094E490F938E0B1
:104B4F00940222E0FCA3E0FD24FCEC34FF540FF5AB
:104B5F0009ED24FCF50A2290F95DE0FEA3E0FF22A7
:104B6F00E53475F013A42290F938E0FAA3E0FBC303
:104B7F002275F013E534021A7CE0FCA3E0FDEC543F
:104B8F000F22FF90F8C9E02FFF90F8C8E03EFE22F9
:104B9F0012195EE47B0AFAF9F802195EEF547FF6F8
:104BAF004402F62290F952CFF0A3EFF0E4A3F022E3
:104BBF00C3ED9416EC940322E0FEA3E0FFD3ED9F28
:104BCF00EC9E2278BDE64480F6222445F582E4343B
:104BDF00EAF583222447F582E434EAF58322CFF005
:104BEF00A3EFF090F934E0222441F582E434EAF5A2
:104BFF00832290F93474FFF022D3EF9401EE648096
:104C0F00948022D3EF9402EE648094802278BBE6E6
:104C1F00240AFFE433FE2278BCE62402FFE433FECD
:0B4C2F0022C454F0FEEF54EF4EF622BA
:1038020012F4F1501078A8E63350047F0180027F51
:103812000078BFA60712F508500312E38C78BFE6C2
:10382200121AB638410038520138640238B70339E7
:10383200AA0439C30539EB06385D0700003A077858
:10384200A8E63350047F0180027F0078BFA60722DA
:1038520078BDE64401F678BF7602227F147E00022C
:10386200F35612BB4F503A12A7C25030124BD290AD
:10387200F934E0FFB4FF0678BF7605801FEFB4FE8F
:103882000912F82178BF7604801212F5085003124B
:10389200AAE312F71712F82178BF760378B976FFF8
:1038A200227536FF7537EA7538CC7B007A0079B914
:1038B2007D0502E49A12F9E1500612417602393D81
:1038C20012F922500512417680031299AD78A9E6C9
:1038D2006405706712F2ED502612FC6B78AFE613A6
:1038E2004010E4FBFDFF12DD317B087DD77F2812FB
:1038F200E77178CDE6FFC205123A08D21F803C126A
:10390200F95A78AFE613402878A8E65440C4131356
:103912005403600C7BFFE4FDFF12DD317B20800944
:10392200E4FBFDFF12DD31E4FB7DD77F2812E77156
:1039320078CDE6FFD205123A08C21F12F5085003ED
:1039420012F54C78A9E664056003023A0712F2ED1B
:10395200501B12FC6B201F05124176D21F12FC6B0A
:10396200E4FF12F16978CDE6FFC2058021301F0520
:10397200124176C21F12F95A90F97AE0B43C047FE0
:103982000280027F0112F16978CDE6FFD205753718
:103992008012F57890F97AE0B43C0790FF567401F2
:1039A200F022E490FF56F02278BDE6FF3350061273
:1039B2004BAB12770A12E83E402D128D36504680EC
:1039C2002678BDE6FF335006124BAB12770A12F58A
:1039D20008500A12F8CB502D7569FD802512E83E79
:1039E200400512F7DF501E801912F508500A12F82E
:1039F200CB501212F930800A12E83E400512F7DF6E
:0D3A020050031241762275378012F57822AC
:10EAA700E4FB7DFE7F4712E77112FAA87BFF7AF835
:10EAB70079017F3C12EFAE500122E4FB7DDF7F52EC
:05EAC70012E771C322FB
:10688D007B007A007911C2067D037F5212DE3CE552
:10689D0011A2E4400AE513A2E44004A2E55002C3AC
:1068AD00227B407DBF7F5212E771E4FB7DFE7F5856
:1068BD0012E7717B007A007911C2067D067F5212B4
:1068CD00DE3CE511541FF509E512F50AE513541FD9
:1068DD00F50BE514F50CE51554F075F010A4FFE576
:1068ED00F0F50DEF4516F50EC3E50A94FFE5099495
:1068FD00075017C3E50C94FFE50B9407500CE50A00
:10690D0045096006E50C450B7002C322E51354C022
:10691D00C41313540390F935F090F946E509F0A32B
:10692D00E50AF090F946124B17FF7E537D07FC12D6
:10693D00195E90F936EEF0A3EFF090F936124AFE9B
:10694D0090F936F0A3EFF090F93CE50BF0A3E50CD0
:10695D00F090F936E0FEA3E0FF7C077DD0121B0F0F
:10696D00C006C00790F93C124B17D007D00612197C
:10697D005E90F938EEF0A3EFF090F938124AFE90E0
:10698D00F938F0A3EFF090F948E50DF0A3E50EF01E
:02699D00D32203
:10A7C20078A9E6FF12F464EF24FE600304706312BA
:10A7D200F508505812B57A505990F97AE024CE60B3
:10A7E2000B24F6700DE490F934F0800690F934747D
:10A7F20001F090F934E0FF75F013A4124BD9E49301
:10A80200FD74019390F94ECDF0A3EDF0EF75F013C6
:10A81200A4124BE3124AD890F950124BED75F01383
:10A82200A4124BF7124AD8124BB3D322125D6050D6
:04A832000122C3221A
:105D6000752CFF12EAA74003025E8590F935E0F535
:105D70002D90F946E0F52EA3E0F52F90F93CE0F5E3
:105D800030A3E0F53112688D4003025E3412EBA7B8
:105D9000124C01C390F947E0952FFF90F946E0952A
:105DA0002EFE12FA29124C08500A90F946E52EF000
:105DB000A3E52FF0C390F93DE09531FF90F93CE069
:105DC0009530FE12FA29124C12500A90F93CE53037
:105DD000F0A3E531F090F946E0B52E19A3E0B52F18
:105DE0001490F93CE0B5300DA3E0B5310890F935D9
:105DF000E0652D6002803D90F8DEE0FEA3E0FF90BC
:105E0000F936124AF79FEC9E402090F8DC124BC7FF
:105E1000501890F8E2E0FEA3E0FF124AF49FEC9ED7
:105E2000400890F8E0124BC74005752CFE800875BD
:105E30002CFD8003752CFFE52C78BE66601AA62C1D
:105E400078BA76FF78BDE654FBF67536FF7537FBFA
:105E50007538F4125E87C3227536FF7537FB7538C7
:105E6000F4125E8778BDE6A2E2501808E6B4FD0A97
:105E700012F4DA90F934EFF0800778BEE690F93446
:105E8000F0D322C322C3227B007A0079BA7D0312A9
:035E9000E49A226F
:108D360090F935E0F54890F946E0F549A3E0F54AA3
:108D460090F93CE0F54BA3E0F54C78A9E6FF12F468
:108D560064EF6401600A78A9E6FF12F464BF020CAE
:108D66007D607F4E12F6B4EF6002D32212688D50FA
:108D760066C390F947E0954AFF90F946E09549FEAB
:108D860012FA29124C08500A90F946E549F0A3E573
:108D96004AF0C390F93DE0954CFF90F93CE0954BC5
:108DA600FE12FA29124C12500A90F93CE54BF0A338
:108DB600E54CF090F946E0B54919A3E0B54A1490A0
:108DC600F93CE0B54B0DA3E0B54C0890F935E065EC
